{
  "contractName": "giBook",
  "abi": [
    {
      "constant": true,
      "inputs": [],
      "name": "supply",
      "outputs": [
        {
          "name": "",
          "type": "uint256"
        }
      ],
      "payable": false,
      "stateMutability": "view",
      "type": "function"
    },
    {
      "constant": true,
      "inputs": [],
      "name": "name",
      "outputs": [
        {
          "name": "",
          "type": "string"
        }
      ],
      "payable": false,
      "stateMutability": "view",
      "type": "function"
    },
    {
      "constant": true,
      "inputs": [
        {
          "name": "",
          "type": "address"
        }
      ],
      "name": "balances",
      "outputs": [
        {
          "name": "",
          "type": "uint256"
        }
      ],
      "payable": false,
      "stateMutability": "view",
      "type": "function"
    },
    {
      "constant": true,
      "inputs": [],
      "name": "decimals",
      "outputs": [
        {
          "name": "",
          "type": "uint256"
        }
      ],
      "payable": false,
      "stateMutability": "view",
      "type": "function"
    },
    {
      "constant": true,
      "inputs": [],
      "name": "founder",
      "outputs": [
        {
          "name": "",
          "type": "address"
        }
      ],
      "payable": false,
      "stateMutability": "view",
      "type": "function"
    },
    {
      "constant": true,
      "inputs": [],
      "name": "symbol",
      "outputs": [
        {
          "name": "",
          "type": "string"
        }
      ],
      "payable": false,
      "stateMutability": "view",
      "type": "function"
    },
    {
      "constant": true,
      "inputs": [],
      "name": "times",
      "outputs": [
        {
          "name": "",
          "type": "uint256"
        }
      ],
      "payable": false,
      "stateMutability": "view",
      "type": "function"
    },
    {
      "inputs": [],
      "payable": false,
      "stateMutability": "nonpayable",
      "type": "constructor"
    },
    {
      "anonymous": false,
      "inputs": [
        {
          "indexed": true,
          "name": "from",
          "type": "address"
        },
        {
          "indexed": true,
          "name": "to",
          "type": "address"
        },
        {
          "indexed": false,
          "name": "tokens",
          "type": "uint256"
        }
      ],
      "name": "Transfer",
      "type": "event"
    },
    {
      "anonymous": false,
      "inputs": [
        {
          "indexed": true,
          "name": "tokenOwner",
          "type": "address"
        },
        {
          "indexed": true,
          "name": "spender",
          "type": "address"
        },
        {
          "indexed": false,
          "name": "tokens",
          "type": "uint256"
        }
      ],
      "name": "Approval",
      "type": "event"
    },
    {
      "constant": true,
      "inputs": [
        {
          "name": "tokenOwner",
          "type": "address"
        },
        {
          "name": "spender",
          "type": "address"
        }
      ],
      "name": "allowance",
      "outputs": [
        {
          "name": "",
          "type": "uint256"
        }
      ],
      "payable": false,
      "stateMutability": "view",
      "type": "function"
    },
    {
      "constant": false,
      "inputs": [
        {
          "name": "spender",
          "type": "address"
        },
        {
          "name": "tokens",
          "type": "uint256"
        }
      ],
      "name": "approve",
      "outputs": [
        {
          "name": "",
          "type": "bool"
        }
      ],
      "payable": false,
      "stateMutability": "nonpayable",
      "type": "function"
    },
    {
      "constant": false,
      "inputs": [
        {
          "name": "from",
          "type": "address"
        },
        {
          "name": "to",
          "type": "address"
        },
        {
          "name": "tokens",
          "type": "uint256"
        }
      ],
      "name": "transferFrom",
      "outputs": [
        {
          "name": "",
          "type": "bool"
        }
      ],
      "payable": false,
      "stateMutability": "nonpayable",
      "type": "function"
    },
    {
      "constant": true,
      "inputs": [],
      "name": "totalSupply",
      "outputs": [
        {
          "name": "",
          "type": "uint256"
        }
      ],
      "payable": false,
      "stateMutability": "view",
      "type": "function"
    },
    {
      "constant": true,
      "inputs": [
        {
          "name": "tokenOwner",
          "type": "address"
        }
      ],
      "name": "balanceOf",
      "outputs": [
        {
          "name": "balance",
          "type": "uint256"
        }
      ],
      "payable": false,
      "stateMutability": "view",
      "type": "function"
    },
    {
      "constant": false,
      "inputs": [
        {
          "name": "to",
          "type": "address"
        },
        {
          "name": "tokens",
          "type": "uint256"
        }
      ],
      "name": "transfer",
      "outputs": [
        {
          "name": "success",
          "type": "bool"
        }
      ],
      "payable": false,
      "stateMutability": "nonpayable",
      "type": "function"
    },
    {
      "constant": true,
      "inputs": [],
      "name": "checkTimes",
      "outputs": [
        {
          "name": "",
          "type": "uint256"
        }
      ],
      "payable": false,
      "stateMutability": "view",
      "type": "function"
    },
    {
      "constant": true,
      "inputs": [
        {
          "name": "_targetAddress",
          "type": "address"
        }
      ],
      "name": "checkToken",
      "outputs": [
        {
          "name": "",
          "type": "bool"
        }
      ],
      "payable": false,
      "stateMutability": "view",
      "type": "function"
    }
  ],
  "bytecode": "0x60806040526040805190810160405280600c81526020017f4769426f6f6b20546f6b656e00000000000000000000000000000000000000008152506000908051906020019061004f929190610169565b506040805190810160405280600381526020017f47425400000000000000000000000000000000000000000000000000000000008152506001908051906020019061009b929190610169565b50600060025560006003553480156100b257600080fd5b50601e60048190555033600560006101000a81548173ffffffffffffffffffffffffffffffffffffffff021916908373ffffffffffffffffffffffffffffffffffffffff16021790555060045460066000600560009054906101000a900473ffffffffffffffffffffffffffffffffffffffff1673ffffffffffffffffffffffffffffffffffffffff1673ffffffffffffffffffffffffffffffffffffffff1681526020019081526020016000208190555061020e565b828054600181600116156101000203166002900490600052602060002090601f016020900481019282601f106101aa57805160ff19168380011785556101d8565b828001600101855582156101d8579182015b828111156101d75782518255916020019190600101906101bc565b5b5090506101e591906101e9565b5090565b61020b91905b808211156102075760008160009055506001016101ef565b5090565b90565b610dbf8061021d6000396000f3006080604052600436106100db576000357c0100000000000000000000000000000000000000000000000000000000900463ffffffff168063047fc9aa146100e057806306fdde031461010b578063095ea7b31461019b57806318160ddd1461020057806323b872dd1461022b57806327e235e3146102b0578063313ce567146103075780634ba8ceb6146103325780634d853ee51461035d57806370a08231146103b457806395d89b411461040b5780639e3b34bf1461049b578063a9059cbb146104c6578063dd62ed3e1461052b578063f1880b24146105a2575b600080fd5b3480156100ec57600080fd5b506100f56105fd565b6040518082815260200191505060405180910390f35b34801561011757600080fd5b50610120610603565b6040518080602001828103825283818151815260200191508051906020019080838360005b83811015610160578082015181840152602081019050610145565b50505050905090810190601f16801561018d5780820380516001836020036101000a031916815260200191505b509250505060405180910390f35b3480156101a757600080fd5b506101e6600480360381019080803573ffffffffffffffffffffffffffffffffffffffff169060200190929190803590602001909291905050506106a1565b604051808215151515815260200191505060405180910390f35b34801561020c57600080fd5b506102156107f0565b6040518082815260200191505060405180910390f35b34801561023757600080fd5b50610296600480360381019080803573ffffffffffffffffffffffffffffffffffffffff169060200190929190803573ffffffffffffffffffffffffffffffffffffffff169060200190929190803590602001909291905050506107fa565b604051808215151515815260200191505060405180910390f35b3480156102bc57600080fd5b506102f1600480360381019080803573ffffffffffffffffffffffffffffffffffffffff169060200190929190505050610a04565b6040518082815260200191505060405180910390f35b34801561031357600080fd5b5061031c610a1c565b6040518082815260200191505060405180910390f35b34801561033e57600080fd5b50610347610a22565b6040518082815260200191505060405180910390f35b34801561036957600080fd5b50610372610a2c565b604051808273ffffffffffffffffffffffffffffffffffffffff1673ffffffffffffffffffffffffffffffffffffffff16815260200191505060405180910390f35b3480156103c057600080fd5b506103f5600480360381019080803573ffffffffffffffffffffffffffffffffffffffff169060200190929190505050610a52565b6040518082815260200191505060405180910390f35b34801561041757600080fd5b50610420610a9b565b6040518080602001828103825283818151815260200191508051906020019080838360005b83811015610460578082015181840152602081019050610445565b50505050905090810190601f16801561048d5780820380516001836020036101000a031916815260200191505b509250505060405180910390f35b3480156104a757600080fd5b506104b0610b39565b6040518082815260200191505060405180910390f35b3480156104d257600080fd5b50610511600480360381019080803573ffffffffffffffffffffffffffffffffffffffff16906020019092919080359060200190929190505050610b3f565b604051808215151515815260200191505060405180910390f35b34801561053757600080fd5b5061058c600480360381019080803573ffffffffffffffffffffffffffffffffffffffff169060200190929190803573ffffffffffffffffffffffffffffffffffffffff169060200190929190505050610ce1565b6040518082815260200191505060405180910390f35b3480156105ae57600080fd5b506105e3600480360381019080803573ffffffffffffffffffffffffffffffffffffffff169060200190929190505050610d68565b604051808215151515815260200191505060405180910390f35b60045481565b60008054600181600116156101000203166002900480601f0160208091040260200160405190810160405280929190818152602001828054600181600116156101000203166002900480156106995780601f1061066e57610100808354040283529160200191610699565b820191906000526020600020905b81548152906001019060200180831161067c57829003601f168201915b505050505081565b600081600660003373ffffffffffffffffffffffffffffffffffffffff1673ffffffffffffffffffffffffffffffffffffffff16815260200190815260200160002054101515156106f157600080fd5b60008211151561070057600080fd5b81600760003373ffffffffffffffffffffffffffffffffffffffff1673ffffffffffffffffffffffffffffffffffffffff16815260200190815260200160002060008573ffffffffffffffffffffffffffffffffffffffff1673ffffffffffffffffffffffffffffffffffffffff168152602001908152602001600020819055508273ffffffffffffffffffffffffffffffffffffffff163373ffffffffffffffffffffffffffffffffffffffff167f8c5be1e5ebec7d5bd14f71427d1e84f3dd0314c0f7b2291e5b200ac8c7c3b925846040518082815260200191505060405180910390a36001905092915050565b6000600454905090565b600081600760008673ffffffffffffffffffffffffffffffffffffffff1673ffffffffffffffffffffffffffffffffffffffff16815260200190815260200160002060008573ffffffffffffffffffffffffffffffffffffffff1673ffffffffffffffffffffffffffffffffffffffff168152602001908152602001600020541015151561088757600080fd5b81600660008673ffffffffffffffffffffffffffffffffffffffff1673ffffffffffffffffffffffffffffffffffffffff16815260200190815260200160002054101515156108d557600080fd5b81600660008673ffffffffffffffffffffffffffffffffffffffff1673ffffffffffffffffffffffffffffffffffffffff1681526020019081526020016000206000828254039250508190555081600660008573ffffffffffffffffffffffffffffffffffffffff1673ffffffffffffffffffffffffffffffffffffffff1681526020019081526020016000206000828254019250508190555081600760008673ffffffffffffffffffffffffffffffffffffffff1673ffffffffffffffffffffffffffffffffffffffff16815260200190815260200160002060008573ffffffffffffffffffffffffffffffffffffffff1673ffffffffffffffffffffffffffffffffffffffff16815260200190815260200160002060008282540392505081905550600190509392505050565b60066020528060005260406000206000915090505481565b60025481565b6000600354905090565b600560009054906101000a900473ffffffffffffffffffffffffffffffffffffffff1681565b6000600660008373ffffffffffffffffffffffffffffffffffffffff1673ffffffffffffffffffffffffffffffffffffffff168152602001908152602001600020549050919050565b60018054600181600116156101000203166002900480601f016020809104026020016040519081016040528092919081815260200182805460018160011615610100020316600290048015610b315780601f10610b0657610100808354040283529160200191610b31565b820191906000526020600020905b815481529060010190602001808311610b1457829003601f168201915b505050505081565b60035481565b60008082600660003373ffffffffffffffffffffffffffffffffffffffff1673ffffffffffffffffffffffffffffffffffffffff1681526020019081526020016000205410158015610b915750600083115b1515610b9c57600080fd5b610ba584610a52565b9050600081141515610bb657600080fd5b600183141515610bc557600080fd5b60036000815480929190600101919050555082600660008673ffffffffffffffffffffffffffffffffffffffff1673ffffffffffffffffffffffffffffffffffffffff1681526020019081526020016000206000828254019250508190555082600660003373ffffffffffffffffffffffffffffffffffffffff1673ffffffffffffffffffffffffffffffffffffffff168152602001908152602001600020600082825403925050819055508373ffffffffffffffffffffffffffffffffffffffff163373ffffffffffffffffffffffffffffffffffffffff167fddf252ad1be2c89b69c2b068fc378daa952ba7f163c4a11628f55a4df523b3ef856040518082815260200191505060405180910390a3600191505092915050565b6000600760008473ffffffffffffffffffffffffffffffffffffffff1673ffffffffffffffffffffffffffffffffffffffff16815260200190815260200160002060008373ffffffffffffffffffffffffffffffffffffffff1673ffffffffffffffffffffffffffffffffffffffff16815260200190815260200160002054905092915050565b600080610d7483610a52565b90506000811115610d885760019150610d8d565b600091505b509190505600a165627a7a72305820b65b6e743375bd3b27257c7a7c110ab94a703bf82bf3e7cdf0b0548216276e910029",
  "source": "pragma solidity ^0.4.24;\n\nimport \"./ERC20Interface.sol\";\n\ncontract giBook is ERC20Interface { \n    string public name = \"GiBook Token\";\n    string public symbol = \"GBT\";\n    uint public decimals = 0;\n    uint public times = 0;\n    \n    uint public supply;\n    address public founder;\n    \n    mapping(address => uint) public balances;\n    \n    mapping(address => mapping(address => uint)) allowed;\n    \n    //allowed[0x1111....][0x22222...] = 100;\n    \n    \n    event Transfer(address indexed from, address indexed to, uint tokens);\n    event Approval(address indexed tokenOwner, address indexed spender, uint tokens);\n\n\n    constructor() public{\n        supply = 30;\n        founder = msg.sender;\n        balances[founder] = supply;\n    }\n    \n    \n    function allowance(address tokenOwner, address spender) view public returns(uint){\n        return allowed[tokenOwner][spender];\n    }\n    \n    \n    //approve allowance\n    function approve(address spender, uint tokens) public returns(bool){\n        require(balances[msg.sender] >= tokens);\n        require(tokens > 0);\n        \n        allowed[msg.sender][spender] = tokens;\n        emit Approval(msg.sender, spender, tokens);\n        return true;\n    }\n    \n    //transfer tokens from the  owner account to the account that calls the function\n    function transferFrom(address from, address to, uint tokens) public returns(bool){\n        require(allowed[from][to] >= tokens);\n        require(balances[from] >= tokens);\n        \n        balances[from] -= tokens;\n        balances[to] += tokens;\n        \n        \n        allowed[from][to] -= tokens;\n        \n        return true;\n    }\n    \n    function totalSupply() public view returns (uint){\n        return supply;\n    }\n    \n    function balanceOf(address tokenOwner) public view returns (uint balance){\n        return balances[tokenOwner];\n    }\n    \n    \n    function transfer(address to, uint tokens) public returns (bool success){\n        require(balances[msg.sender] >= tokens && tokens > 0);\n        uint minimumValue = balanceOf(to);\n        require(minimumValue == 0);\n        require(tokens == 1);\n        times++;\n        \n        balances[to] += tokens;\n        balances[msg.sender] -= tokens;\n        emit Transfer(msg.sender, to, tokens);\n        return true;\n    }\n\n    function checkTimes() view public returns(uint) {\n        return times;\n    }\n    \n    function checkToken(address _targetAddress) view public returns(bool) {\n        uint targetValue = balanceOf(_targetAddress);\n        if(targetValue > 0) {\n            return true;\n        } else {\n            return false;\n        }\n    }\n}",
  "sourcePath": "/Users/akitasatoshi/GiBook/contracts/giBook.sol",
  "compiler": {
    "name": "solc",
    "version": "0.4.25+commit.59dbf8f1.Emscripten.clang"
  },
  "schemaVersion": "2.0.2",
  "updatedAt": "2019-04-23T16:00:09.088Z"
}